:020000040800F2
:10000000F810002001010008890B0008990A000877
:10001000850B0008A50500089512000800000000E7
:100020000000000000000000000000008D0F00082C
:10003000F907000800000000690F0008A11000087F
:100040001B0100081B0100081B0100081B01000820
:100050001B0100081B0100081B0100081B01000810
:100060001B0100081B0100081B0100081B01000800
:100070001B0100081B0100081B0100081B010008F0
:100080001B0100081B0100081B0100081B010008E0
:100090001B0100081B0100081B010008FD070008E8
:1000A0001B010008051100081B0100081B010008C6
:1000B0001B0100081B0100081B0100081B010008B0
:1000C0001B0100081B0100081B0100081B010008A0
:1000D0001B0100081B0100081B0100081B01000890
:1000E0001B0100081B0100081B010008DFF80CD0F1
:1000F00000F00CFA00480047F9140008F81000203E
:100100000648804706480047FEE7FEE7FEE7FEE7B1
:10011000FEE7FEE7FEE7FEE7FEE7FEE7A5100008C4
:10012000ED000008CAB2401E10F8011F8A4202D03A
:100130000029F9D1002070472DE9FE4F81EA030420
:1001400004F0004421F0004100944FF0000B23F034
:10015000004350EA01045ED052EA03045BD0C3F3CB
:100160000A54C1F30A552C44A4F2F3340194A0FBC1
:100170000254C1F3130141F48011C3F3130343F498
:10018000801301FB024400FB034E840A970A44EAF1
:10019000815447EA8357A4FB076802958D0A05FB43
:1001A00007854FEA932C04FB0C542705029D4FEA68
:1001B000065847EA1637B5EB08056EEB070C870EB5
:1001C000920E47EA811742EA8312A7FB0201B6EBBF
:1001D0000B0164EB00042B0D43EA0C335E1844EB77
:1001E0001C50DA465146E7FB0201C5F313044FEAFF
:1001F0000B3343EA14534FEA0432019C43EA0603EB
:10020000A4F10C040294009CCDE900B400F030F994
:1002100003B0BDE8F08F00200146F9E72DE9F04D6D
:1002200081EA030404F0004B21F0004514464FF02E
:10023000000A23F0004150EA050220D054EA0102EE
:100240001DD0C5F30A570246C5F31303C1F31300CB
:10025000C1F30A5640F4801543F48013A7EB060857
:10026000101BD64608F2FD3873EB050002D308F1E7
:10027000010801E092185B41B8F1000F03DA002099
:100280000146BDE8F08D00204FF4801106468446FB
:100290000EE0171B73EB050705D3121B63EB050379
:1002A00006434CEA010C49084FEA300092185B41C2
:1002B00050EA0107EDD152EA030012D082EA0400AD
:1002C00083EA0501084305D0101BAB4106D2012289
:1002D000002306E000224FF0004302E06FF001022D
:1002E00053101AEB06004CEB085110EB0A0041EBDF
:1002F0000B01BDE8F04D00F0ACB8C10F80EAE07032
:100300000844CA079623002100F075B80EB5C10F46
:1003100080EAE0700844CA07002140F233438DE8C8
:100320000E000A460B4600F0A3F803B000BD70B5FE
:10033000C1F30A5201F000450024C1F3130140F259
:10034000FF3341F480119A4201DA002070BD40F27F
:1003500033439A42A2F2334203DC524200F032F8B5
:1003600000E090402C43F1D0404270BDC1F30A52EE
:1003700010B5C1F3130140F2FF3341F480119A42EA
:1003800001DA002010BD40F233439A42A2F2334218
:1003900003DC524200F016F810BD904010BD00F092
:1003A000004230F000400AD0C10D01F56071C0F389
:1003B000160042EA0151C20840071143704700206D
:1003C00001467047202A04DB203A21FA02F000217E
:1003D000704721FA02F3D040C2F120029140084355
:1003E000194670470029A8BF7047401C490008BF44
:1003F00020F00100704710B4B0FA80FC00FA0CF055
:1004000050EA010404BF10BC704749B1CCF120048C
:1004100021FA04F411FA0CF118BF01212143084319
:10042000A3EB0C01CB1D4FEA00614FEA102042BF45
:10043000002010BC704700EBC35010440029A4BF3B
:1004400010BC7047401C490008BF20F0010010BCE0
:10045000704710B5141E73F1000408DA401C41F116
:10046000000192185B411A4301D120F0010010BD38
:100470002DE9F04D92469B4611B1B1FA81F202E0AE
:10048000B0FA80F22032904600F052F804460F464F
:1004900040EA0A0041EA0B0153465A46084313D08A
:1004A000114653EA010019D0C8F140025046FFF747
:1004B00089FF05460E4650465946424600F038F838
:1004C000084305D0012004E020463946BDE8F08D00
:1004D0000020054346EAE0762C4337430A9863053B
:1004E000E40AA0EB08000022FD0A44EA47540A305F
:1004F00002D500200146E9E7010510196941DDE94F
:10050000084500196941BDE8F04DA2E7064C074DCA
:1005100006E0E06840F0010394E8070098471034D3
:10052000AC42F6D3FFF7E6FD5C1600087C16000827
:10053000202A04DB203A00FA02F1002070479140A3
:10054000C2F1200320FA03F319439040704770B5BD
:100550008C1810F8015B15F0070301D110F8013B6E
:100560002A1106D110F8012B03E010F8016B01F8F5
:10057000016B5B1EF9D12B0705D40023521E0DD44D
:1005800001F8013BFAE710F8013BCB1A921C03E09B
:1005900013F8015B01F8015B521EF9D5A142D8D3D3
:1005A000002070BD00BFFEE710B5002415480068AC
:1005B00020F47040134908600846006840F4004089
:1005C000086004E0601CC4B2012000F06FFF0E4818
:1005D000006808B1C82CF5DBC82C01DB012010BD78
:1005E000002404E0601CC4B2012000F05FFF064854
:1005F000006808B9F02CF5DBF02C01DB0120EEE7F8
:100600000020ECE704080140140121422DE9F84FD5
:1006100000F0ACF800F088F8FFF7C6FFCC2000F03F
:10062000B1F8BE2000F0AEF800F06CF8834600F0A0
:1006300069F80446072C08DDE043C4B26FEA0B00FA
:1006400000F0FF0B4FF0000A01E04FF0010AA14655
:100650004FEA09200FFA80F909EB0B000FFA80F935
:100660004846FFF74AFE0090FFF799FE0746002232
:10067000084BFFF761FD0546FFF759FE0FFA80F9B9
:10068000BAF1000F02D04846BDE8F88FC9F100006A
:1006900000B2F9E70000E43F10B51748006820F405
:1006A0007040154908600846006840F440500860F2
:1006B000002012490860022000F0F8FE01201049D5
:1006C000C1F894010C48006820F470400A490860A1
:1006D0000846006840F4004008600C2000F0E6FE88
:1006E00006488038006808B1012400E00024322068
:1006F00000F0DCFE204610BD0408014094012142B8
:100700000000214270B50026012508E0FFF7C4FF74
:100710000446E00140EA6600C6B2681CC5B2082D76
:10072000F4DD304670BD000010B50D48006820F4BF
:1007300070400B4908600846006840F4405008606B
:1007400000200849086040F2EE2000F0AFFE0120D2
:100750000549C1F894010F2000F0A8FE10BD00006B
:1007600004080140940121420000214210B5FFF726
:10077000DBFFFFF719FFCC2000F004F8442000F065
:1007800001F810BD70B504461848006820F47040A8
:10079000164908600846006840F44050086001258A
:1007A00020E004F0010664106EB1002010490860DA
:1007B000022000F07BFE01200E49C1F894013C208C
:1007C00000F074FE0CE00020094908603C2000F0B5
:1007D0006DFE01200749C1F89401022000F066FE79
:1007E000681CC5B2082DDCDD70BD000004080140A6
:1007F00094012142000021427047000010B50A20F8
:1008000000F054FE4FF4007000F024F8B8B100215D
:100810000B4800F0B4FC0121094800F087FC00BF40
:100820004FF40071074800F02AF90028F8D10021A0
:10083000034800F07BFC4FF4007000F005F810BD99
:10084000002C014000080140014908607047000089
:1008500014040140014600200022074B1B6803EAF4
:100860000102054B14331B680B4013B10AB1012080
:1008700000E00020704700000004014000212349EF
:100880008279002A3AD00A46126803689A430B46D6
:100890001A600A1D126803689A430B1D1A600279D8
:1008A00011440A6803681A430A60184A0832126839
:1008B00003689A43154B08331A601A1D12680368BF
:1008C0009A43124B0C331A604279102A0ED11A1F28
:1008D000126803681A430D4B08331A601A1D126818
:1008E00003681A43094B0C331A600DE0074942793B
:1008F00011440A6803681A430A6005E0027911444A
:100900000A6803689A430A607047000000040140C7
:10091000044900E0521C11F8013B002BFAD15008A9
:10092000704700006808002030B500228B071C0FBC
:100930000F2303FA04F20B4B8C1053F8243093432B
:10094000084C8D1044F8253023468C1053F8243081
:100950008C07240F00FA04F42343024C8D1044F852
:10096000253030BD080001402DE9F0410246002548
:100970000026002000230024002791F803C00CF07B
:100980000F0591F803C00CF0100CBCF1000F03D060
:1009900091F802C04CEA050591F800C0BCF1000FC7
:1009A00031D0146800202BE04FF0010C0CFA00F35A
:1009B000B1F800C00CEA03069E4220D183004FF03C
:1009C0000F0C0CFA03F7BC4305FA03FC4CEA0404D1
:1009D00091F803C0BCF1280F06D14FF0010C0CFABE
:1009E00000FCC2F814C00AE091F803C0BCF1480F43
:1009F00005D14FF0010C0CFA00FCC2F810C0401CED
:100A00000828D1D31460B1F800C0BCF1FF0F34DD69
:100A1000546800202EE000F1080C4FF0010808FA9D
:100A20000CF3B1F800C00CEA03069E4221D183000A
:100A30004FF00F0C0CFA03F7BC4305FA03FC4CEA29
:100A4000040491F803C0BCF1280F05D100F1080C93
:100A500008FA0CF8C2F8148091F803C0BCF1480FF2
:100A600007D100F1080C4FF0010808FA0CF8C2F8A1
:100A70001080401C0828CED35460BDE8F0810246A7
:100A8000002093680B400BB1012000E0002070476C
:100A9000416170470161704700BFFEE7002001E03F
:100AA000411CC8B20A28FBDB7047000008B50121D1
:100AB000082000F05BFA4020ADF8000003208DF81C
:100AC000020014208DF8030069460648FFF74CFF2A
:100AD0008020ADF8000069460248FFF745FF00F0AE
:100AE0001DF808BD000C014010B50120094908603F
:100AF0000949C1F89801FFF7D1FF002005490860B6
:100B0000FFF7CCFF00200449C1F89801FFF7C6FFAA
:100B100010BD00009C8121420080214210B50020C0
:100B20000549086001200549C1F89801FFF7B6FFA3
:100B300001200149086010BD9C81214200802142B2
:100B400010B501200C490860FFF7A8FF01200B49F0
:100B5000C1F89801FFF7A2FF80210948FFF78FFF36
:100B600008B1012400E0002400200349091F0860A7
:100B7000FFF794FF204610BD9C8121420080214256
:100B8000000C014000BFFEE77047000070B5002177
:100B900000230F22C47804B3154C246804F4E064E5
:100BA000C4F5E064210AC1F10403CA40447804FAA0
:100BB00003F184781440214309010E4C0678A155B5
:100BC000047804F01F050124AC4005786D11AD00D8
:100BD00005F1E025C5F8004109E0047804F01F059F
:100BE0000124AC40044D0678761145F8264070BDCE
:100BF0000CED00E000E400E080E100E00249014388
:100C0000024A1160704700000000FA050CED00E098
:100C100010B5002000F001F810BD70B506460024A4
:100C200015E004F1B001C8B200F0BCFB002000F0F8
:100C3000B9FB102000F0B6FB002504E0304600F0C0
:100C4000C7FB681CC5B2822DF8DB601CC4B2082C3F
:100C5000E7DB70BD10B5FFF75BFE2B490860FFF7BF
:100C600025FFAE2000F09EFB002000F09BFB102033
:100C700000F098FB402000F095FBB02000F092FBC4
:100C8000812000F08FFBFF2000F08CFBA12000F002
:100C900089FBA62000F086FBA82000F083FB3F2004
:100CA00000F080FBC82000F07DFBD32000F07AFB31
:100CB000002000F077FBD52000F074FB802000F0CE
:100CC00071FBD82000F06EFB052000F06BFBD920F3
:100CD00000F068FBF12000F065FBDA2000F062FB19
:100CE000122000F05FFBDB2000F05CFB302000F006
:100CF00059FB8D2000F056FB142000F053FBAF2071
:100D000000F050FB10BD0000F00C002070B5044650
:100D10000D4605F1B001C8B200F044FBA11CC1F3BF
:100D2000031141F0100000F03DFBA11C01F00F0188
:100D300041F0010000F036FB70BD00002DE9F047E6
:100D4000074688461646002580E03078A02843DD17
:100D500000253AE0702F04DD002708F1020000F0C2
:100D6000FF0830783C4911F8151088422CD1707872
:100D7000012101EB4501384A515C884224D14146AA
:100D80003846FFF7C3FF002406E004EB4511334A61
:100D9000505C00F01DFB641C102CF6D308F1010020
:100DA000C1B23846FFF7B2FF002407E004EB45115B
:100DB00010312A4A505C00F00BFB641C102CF5D358
:100DC00007F11000C7B204E06D1C25480068854299
:100DD000C0D300BFB61C39E07A2F04DD002708F12C
:100DE000020000F0FF0831781E48FFF79BF98146AA
:100DF000B9F1000F29D041463846FFF787FF00249C
:100E000009E099F80010203904EB0111164A505CF2
:100E100000F0DEFA641C082CF3D308F10100C1B223
:100E20003846FFF773FF00240AE099F800102039D4
:100E300004EB011108310C4A505C00F0C9FA641C43
:100E4000082CF2D307F10800C7B2761C30780028CE
:100E50007FF47BAFBDE8F08768080020080600201B
:100E6000F00C00208F080020180000202DE9F04130
:100E700007460E46904600250024A8F12000C5B282
:100E8000812F02DD0027B01CC6B231463846FFF77D
:100E90003DFF002407E004EB05110E4A505C00F012
:100EA00097FA601CC4B2082CF5DB701CC1B238463E
:100EB000FFF72CFF002408E004EB05110831054A78
:100EC000505C00F085FA601CC4B2082CF4DBBDE86D
:100ED000F0810000180000202DE9F05F05468946EA
:100EE00090461E46DDF828A04FF0000B002437E0A6
:100EF000301B401EC1B20A2000F0A4FBB8FBF0F08A
:100F00000A21B0FBF1F201FB1207BBF1000F1AD16D
:100F1000701EA04217DDA7B9BAF1000F08D0082152
:100F200001FB0451C8B230224946FFF79FFF07E09A
:100F3000082101FB0451C8B220224946FFF796FF61
:100F40000CE04FF0010B07F13001CAB2082101FBA0
:100F50000451C8B24946FFF789FF00BF601CC4B204
:100F6000B442C5DBBDE8F09F7047000029B1064AD6
:100F700092690243044B9A6104E0034A92698243F6
:100F8000014B9A617047000000100240704710B595
:100F900000F002F810BD00000CB500200190009098
:100FA0003348006840F480303149086000BF304861
:100FB000006800F4003000900198401C01900098F7
:100FC00018B90198B0F5A06FF1D12948006800F474
:100FD000003010B10120009001E000200090009846
:100FE000012843D12348006840F0100021490860DF
:100FF0000846006820F0030008600846006840F0DA
:10100000020008601A48406819494860084640686C
:1010100048600846406840F4806048600846406880
:1010200020F47C1048600846406840F4E8104860AE
:101030000846006840F08070086000BF0C480068F7
:1010400000F000700028F9D00948406820F0030043
:10105000074948600846406840F00200486000BF09
:101060000348406800F00C000828F9D10CBD0000CE
:101070000010024000200240042808D14FF0E02177
:10108000096941F004014FF0E022116107E04FF0DF
:10109000E021096921F004014FF0E022116170475D
:1010A0007047000010B51348006840F00100114976
:1010B000086008464068104908400E4948600846E4
:1010C00000680E4908400B4908600846006820F493
:1010D000802008600846406820F4FE0048604FF415
:1010E0001F008860FFF753FF4FF00060044908605D
:1010F00010BD0000001002400000FFF8FFFFF6FEE8
:1011000008ED00E010B50121044800F01EF818B108
:101110000121024800F007F810BD0000002C01403A
:10112000CA4302827047CA430282704721B10288D3
:1011300042F00102028004E002884FF6FE731A407A
:10114000028070470146888C704730B50246002007
:1011500000230024158A05EA0103958905EA0104A4
:1011600013B10CB1012000E0002030BD1AB1838919
:101170000B43838102E083898B43838170478184A1
:1011800070470000002202881D4B98420ED01D4B74
:1011900098420BD0B0F1804F08D01B4B984205D03D
:1011A0001A4B984202D01A4B984204D14FF68F73D3
:1011B0001A404B881A43174B984207D0164B984257
:1011C00004D04FF6FF431A40CB881A4302808B8825
:1011D00083850B8803850A4B98420BD0094B9842B4
:1011E00008D00E4B984205D00D4B984202D00D4BC3
:1011F000984201D10B7A0386012383827047000055
:10120000002C014000340140000400400008004070
:10121000000C00400010004000140040004001405D
:1012200000440140004801407FB504460D460121BD
:10123000C802FFF79BFEADF80840681E80B2ADF80B
:1012400004000020ADF80A00ADF806008DF80C008F
:1012500001A90F48FFF796FF01210D48FFF760FF36
:10126000012241210A48FFF781FF19208DF8000073
:1012700000208DF801008DF8020001208DF8030098
:101280006846FFF783FC01210148FFF74FFF7FBD50
:10129000002C014000BFFEE71FB501210520FFF72C
:1012A00065FE4FF48060ADF80C0010208DF80F0043
:1012B00003208DF80E0003A91748FFF755FB4FF4E4
:1012C0000070ADF80C0028208DF80F0003A912481B
:1012D000FFF74AFB09210020FFF726FB4FF40070BF
:1012E000019001208DF80A0000208DF808000820E8
:1012F0008DF8090001A8FFF7C1FA17208DF800004A
:1013000001208DF8030000208DF801008DF8020007
:101310006846FFF73BFC1FBD0008014010B50446BE
:101320000A2C0EDD4FF480610748FFF7B3FB20461F
:1013300000F0BCF84FF480610348FFF7A9FB0020E0
:1013400010BD0120FCE700000008014070B5044614
:10135000002520E004F0800018B101200F4908604A
:1013600002E000200D490860FFF798FB01200B49BF
:10137000091F0860FFF792FB00200949C1F8980196
:10138000072D02D10120054908606006040EFFF711
:1013900085FB681CC5B2082DDCDB70BD9C81214239
:1013A0000080214210B50446FFF79EFB7820FFF72E
:1013B000CDFFFFF7C5FB0020FFF7C8FFFFF7C0FB1D
:1013C0002046FFF7C3FFFFF7BBFBFFF7A7FB10BDEE
:1013D00010B50446FFF788FB7820FFF7B7FFFFF74B
:1013E000AFFB4020FFF7B2FFFFF7AAFB2046FFF755
:1013F000ADFFFFF7A5FBFFF791FB10BD02E008C8AA
:10140000121F08C1002AFAD170477047002001E07E
:1014100001C1121F002AFBD17047000010B56FF008
:101420000400FFF729FE0A4800680A49B0FBF1F002
:10143000094908700846007800EB4001C1EBC01074
:101440004FF6FF7101EAC0000449088010BD00009A
:101450000000002000127A00140000201600002076
:101460000146114A12884A434FF0E0235A61002294
:101470009A611A46126942F001021A6100BF4FF0E8
:10148000E022106900F001021AB100F48032002A53
:10149000F5D04FF0E022126922F001024FF0E02374
:1014A0001A6100229A617047160000200146114A15
:1014B00012784A434FF0E0235A6100229A611A469B
:1014C000126942F001021A6100BF4FF0E022106978
:1014D00000F001021AB100F48032002AF5D04FF07A
:1014E000E022126922F001024FF0E0231A6100228B
:1014F0009A617047140000201CB54FF000091420B9
:101500000190FFF7C9FE41F61F4142F20E70FFF74E
:101510008BFE4FF4A060FFF771FBFFF77FFFFFF733
:1015200099FB00BF0198FFF7F9FE0028FAD1FFF7F9
:101530006FFB6FE00A2099FBF0F100FB119048BBB4
:10154000FFF764F80446002C07DA33A206213220A4
:10155000FFF7F4FB604204B204E030A2062132201F
:10156000FFF7ECFB0A2094FBF0F5102002232A463B
:10157000062100903C20FFF7AFFC0A2094FBF0F11D
:1015800000FB1145102001232A4606210090582017
:10159000FFF7A2FC0A20FFF763FF09F1010000F04A
:1015A000FF09B9F1140F01D14FF000091CA200216D
:1015B0000F20FFF7C3FB1EA206210020FFF7BEFB92
:1015C0001DA206216420FFF7B9FB0198FFF7A6FED4
:1015D0001A48FFF7B7FD4FF4AA7100FB01FB58460C
:1015E000FEF794FE07460022154BFEF717FE054650
:1015F000FEF7BCFE00F0FF0ABAF1000F0ADD102072
:1016000006235246194600903220FFF765FC0A2057
:10161000FFF726FF8EE700002D00000020000000ED
:10162000C6C1C4BBCFD4CABEB2E2CAD40000000057
:10163000BEE0C0EB3A000000636D0000002C0140EA
:101640000000694010B50246012000E050430B1E27
:10165000A1F10104E1B2F9D110BD00007C1600082F
:1016600000000020F40C00004E050008C41E000815
:10167000F40C0020040400000C1400081184A24A99
:1016800004000917010203040607080972F852331F
:101690001C100C0603912C40C07803112C043F044D
:1016A0000321367088FC0830261820FF211E14F014
:1016B00008F033E0184D211C031E11338870000C14
:1016C000101E2123241927211010160E45E018049E
:1016D0000225071820403D020418E0692C20180755
:1016E00007174080F08040403F0202010F010228AE
:1016F0003AF0C41C01011F04912B80B066B1191D82
:101700002901912A30A5592C146018043C60180650
:101710001D1EE010080810721F0F102020100FF07F
:101720005310F83620203F20203C700808C21E309D
:1017300028242221441E3008888848082E1820209A
:101740002011CC3BC0203227070424243F241AF860
:10175000202308084B19212036E0108888184B0FE9
:1017600011101E380808C8382021523F1A702E293F
:10177000608F1C222121221C90111D3122221190E8
:101780001961CAC0C26A80C659081C40201050178F
:101790000102040810204A4001114A0401211915D0
:1017A0002A403219251B0402F21B7048D13AF0502E
:1017B0001A360F1EC030C828E870280807182724DA
:1017C00023140B6F2A387E280D203C230202273871
:1017D0002008F888889F4B203FF01BC0303F1B0833
:1017E0003830191019781B08F80F194039201B10D0
:1017F0000F103E8888E8081010AC23201810112A1A
:10180000035E2940223829402C221E024019A418C8
:1018100009F808203F21010121252A0852298129A0
:10182000424149112EC08080807F0E2FF888C02849
:101830001808501C0126382F2940292F29801B20E9
:10184000301012F81AF81413203F190229204B30D7
:10185000C0601A2074123F4BE010B06B0F10B0291B
:10186000D01AF0301980220179203F1824243850F2
:101870004FC04C888870C0140C30204B7088C11742
:1018800038202121221C3A189F4A188239A049D0B9
:10189000112A1F90121F240878881BC838151C07AE
:1018A000380E60191A1AF8201114033C0714073C6B
:1018B000034814081868808068180820302C030337
:1018C0002C30200838C82F5950298F29102F203844
:1018D00026212020681145FE020202257F4040405B
:1018E0001A0CE0611C0106380B191D42FE191D522D
:1018F0007F1A04120211045A80011930D91D3916B9
:1019000021180819242222223F20AB390F115F3FF2
:10191000112020110E21311A0E104B2011104B886E
:10192000F8102A10B359401A1F3F2B22130F16F03C
:10193000888888181A20D029D1497A21176B949465
:101940009493603960190F4C203F21F3548098988C
:10195000793059121AC02719D1193039311F203F57
:1019600024022D30212A0812893069D7294B2903F6
:10197000190BC96079A019BF2B201FDD390F9C807E
:10198000FFA1E0191229D03BA0FF0C3950194112D8
:10199000208A01C01B3324012A190F3AE041395231
:1019A000290F392349603C103F202C29053F010EA7
:1019B0003008060170291038080F300C030C300F66
:1019C0002C49A14E312E0E31200C29621D818E70C2
:1019D000183059D1215721302C22213055807C02DA
:1019E00002443F404072FF39083C02027C8F544061
:1019F000403F4E02010202042F61280CFE1292B2F7
:101A0000D2929292D2B29E27180B300F0484641F98
:101A1000040404FF0439401EFAAAAFAAAA042AFA51
:101A200066381012120A7E0A0B0AFE0A2A4A3E0A79
:101A3000121241193D29013AFE67180842445840E4
:101A40007F4040041D50484640772A42013AC20672
:101A5000199F15201008062C40807F5A1404083066
:101A6000151060028C16FE02F202FE2AF8B1100B6D
:101A700004047E018047300F10272A4726194012A0
:101A8000CC2A90013EFF10111610E6300C10286091
:101A90003F1010010E3040F01BF010012AFF052905
:101AA0000E211A0FB839BD33040F1907280AC44F85
:101AB0004444F444444FC4D1101084844447241453
:101AC0000C070C142447448484180D08080838C8EF
:101AD00008090E0808C8380C1110108080404020FA
:101AE000110A040A1120404080801C9052345D107D
:101AF0000A345280708F0808F8081008829A5663DA
:101B000022528E10088040330C3340801010100C8D
:101B1000042424242526A464240404140C2A020189
:101B20003C42827F08230202180CFE024222325EEF
:101B30009252321202E421180AFF42424251556485
:101B400069410819F0312BFE20012A3F05314C80F4
:101B5000601F3B292D211D1060028C232A92012930
:101B600012180A04047E01407E42427E024C427EEC
:101B70004020491F7920300C4448507F40407F501E
:101B80004844401AFCA02DFC252624081204180EF7
:101B900040308F80844C55252525554C80E011160A
:101BA0003E22E2223E2BFE220113E2021988141F7C
:101BB00011112B7F44011B474050180B04F484D4AF
:101BC000A5A6A4D484F40C29D0200C02123A161332
:101BD000121A3242827E3808060909E6F80C04B26D
:101BE00053041E2E071F302040012320101027C64B
:101BF000C1C4BBCFD4CABEB2E2CAD4D6D0D3A2CE5F
:101C0000C4CAFDD7D6CDBCC6ACCEC2CAAAB6C8BE61
:101C1000E0C0EBA1E6185F202122232425262728F7
:101C2000292A2B2C2D2E2F303132333435363738AC
:101C3000393A3B3C3D3E3F4041424344454647489C
:101C4000494A4B4C4D4E4F5051525354555657588C
:101C5000595A5B5C5D5E5F6061626364656667687C
:101C6000696A6B6C6D6E6F7071727374757677786C
:101C7000797A7B7C7DA801232C6C7E7A01000B177E
:101C800074706060E0C0C0C080801B80801E4DE02A
:101C900060607430022E6C193D2833E0E0F0F0F8FB
:101CA000F8F8FCFCFCBEBEFEFED6DFDFFF7F7F7FC8
:101CB000BFFFF7F7FFBF7FFFFEFEEECEECFCFCF8A8
:101CC000F9B9337367E6CECC9C18B0F0E001280D6B
:101CD000F030189C8CCEE6E77373B9F93C6EEECE0B
:101CE000EEFEFE37180B7F7FFFDFDFD7F67EBEBE2E
:101CF0001A195C2AF0340A10C0C25BFEFF01180AF0
:101D0000D89FBFFF7D7DEDF3FF12181976373B3F5B
:101D10003F3BB9FBDFFFFF3DBEB77773F7FFFFFC2B
:101D20007F7FF7FE552CFFF5F30F180B1F6D1FFF7C
:101D3000FFF677F3F1FFAB2813FF73777FFCFFFF0C
:101D4000F7737737BFBCFFFFDFFBF93F2C3776EF28
:101D50004C6808E1FD7DFFBF9FD867F3FE7C1F0143
:101D6000030F0F1F1F4E69011822FBFDBEDBDF9F13
:101D70003BFBFBF71FFCF13FFFFC86B7D36DEDBECD
:101D8000FAFB6DBDF6FB7BBDDDFEFE5512F01CF4CB
:101D900008F94D1820FE7EDDBD7FFBF6BE6D7BDBB6
:101DA000F6F56DCBFF86FDFE1FF3FC1EE7F7FB3B50
:101DB0009FDFDBBE9479570008193F1F1F0F0F07E5
:101DC000032D03071F3FE01DFFFBF7EFC4581ADC8C
:101DD000DFDFDFEE77F9FCDFFF6F6F66F3FBDDCE51
:101DE000E673B99DCEE7BBFD4F6A06D01817B9F36D
:101DF000C68C193367CE9DF9F367676D7FDFFCBD35
:101E00007FFFEDDF401BFFFF48290107277F3F1FB2
:101E10000F03012C010103012AFB891AFC05181686
:101E2000EEE7E7E70FFEFCF9FFFEFDEE67F97EF750
:101E3000FFCFFFFF01771BC0FE081A3F631811F7A1
:101E40006FFDF7EFDDFEFFB3FDFE8FD7E7E7E67826
:101E50002BFEF13E39480A26017801103D030F1F81
:101E60007FBE1014F7F7E7F7FF8F83FF7F7FFBFB41
:101E7000FBE7FFFEFF3F0C19171A0304211A3F0668
:101E80001AE718580BFF7FFF83AFDFFFE7F7F7F282
:101E90000B360F0779C1580C010303070F0F1F1FE3
:101EA0003F3F7F011A7E041C3F3F1F5E2D01070F3D
:101EB0001F172A7E13290119171D1F0F0F07F40181
:041EC00029000000F5
:0400000508000101ED
:00000001FF
